:06000000020069020BEF93
:03000B000226F7D3
:030013000226D0F2
:03001B00022718A1
:030023000228842C
:03002B00020C3193
:0300330002271A87
:03003B0002288513
:03004300020100B7
:03004B00021F0C85
:03005300020100A7
:03005B000226D1A9
:030063000226D2A0
:0300C200020066D3
:03006600020C6623
:2001BE00AF82BF033B7800E2B4EE3578587463F2087429F2902963E493785AF208E4F290CD
:2001DE00E000121C4E7D007EE090E6B57401F090E6B3EEF090E6B4EDF090E6A07480F02210
:2001FE007883EFF278007984E2F39029590222B1785E7401F208E4F2087460F2785CE4F241
:20021E0008F2786104F208E4F2786304F2758251121C87E58260407801E2B4FF0280387804
:20023E0001E2B4C201227801E2B4C02B785E74C0F208743FF208E4F2785C740CF208E4F27F
:20025E0078617429F208E4F2786304F2758251121C87E582600122903FC0745AF0785874F1
:20027E009DF2087429F2785A7410F208E4F2903FC1121C4E903FD1E4F0A3F0A3F0A3F022B9
:20029E007EB27F289028C2E493FD1DC2D575F002ED30E704B2D5F404A430D50AF42401C548
:2002BE00F0F43400C5F02449F582742935F0F583E493FCA3E493FD7802ECF208EDF2740CEC
:2002DE002EFEE43FFF8E828F83E0FAA3E0FB903FC0E0FD7C0074C02DFD74FF3CFCED420216
:2002FE00EC42038E828F83EAF0EBA3F0903FC0E0FF7802E2F58208E2F583EFF07802E22433
:20031E0002FE08E23400FF8E828F83785874C1F208743FF2785A7410F208E4F2021C4E78D2
:20033E0004E2540524FFE433F582120DF17804E2035401F582020DD9AF827804E24FF202B8
:20035E00033DAF827804E25207EF24FFE433F58222AF827804E25F600FEFF4FF7804E25F99
:20037E00F212033D75820122758200227805E2600790E6A07401F02278057401F222AF824E
:20039E00BF00028026BF01028005BF021A800C758200C007121860D0078010758201C007BC
:2003BE00121860D007800475820022787EEFF27806E4F27807F2788814F27889F29029597A
:2003DE0012255575820122AF82787EE2B401028008787EE2B4020A80047E0080087E0180F0
:2003FE0004758200227808E2B4011B8F058DF005F078487401800225E0D5F0FBF28E82C04C
:20041E00071218E1D007EF2406F87908E3F27888EFF278087989E2F39029591225557582A1
:20043E000122E5822406F9E390E740F090E6B57401F090E68AE4F090E68B04F090E6A003F5
:20045E00F02290E6B8E0FFE4BF400104FE601390E6B9E0FDBDB00B7805E4F290E6A0748025
:20047E00F022E4BFC00104FD7006EE70030205EF90E6B9E0FCE4BCA90104FB7008BC100280
:20049E0080030205EFEF235401FE7F0090E6BA780BE0F2A3E008F290E6BE780DE0F2A3E0D1
:2004BE0008F27C00EB60047F51803090E6BCE0FAA3E0FBBA0005BB00028010BA0105BB00C8
:2004DE0002800EBA0215BB0012800C7F517C06800A7F527C0880047F537C087805E4F2EFF7
:2004FE00700790E6A07401F022780DE2F5F008E245F0700122780DC3E2944008E294005000
:20051E0009780DE2FA08E2FB80047A407B00EE605190E6A0E020E1F9785E7440F20874E747
:20053E00F208E4F27861EAF208E4F2780B795CE2F308E209F378637401F28F82121C87E53A
:20055E0082700790E6A07401F02290E6B57401F090E68AE4F090E68BEAF090E6A07480F0AE
:20057E00805790E6B57401F090E68AE4F090E68BF090E6A07480F090E6A0E020E1F9786867
:20059E007440F20874E7F208E4F2786BEAF208E4F2780B7966E2F308E209F3786D7401F25E
:2005BE00786EECF2786F74FFF28F82121D27E582700790E6A07401F0227B00780DE2C39AEC
:2005DE00F208E29BF2780BE22AF208E23BF2020507ED7006EE700302069290E6B9E0FCBCC9
:2005FE0013028003020692EF235401FC90E6BAE0FF90E6BEE0FAA3E0FB7805E4F28F82C089
:20061E0004C003C002120E9CE582D002D003D004605BEC603290E6A0E020E1F98A04781850
:20063E00ECF290E740C004120ECBE582D004603D90E6B57401F090E68AE4F090E68BECF03F
:20065E0090E6A07480F02290E6B57401F090E68AE4F090E68BF090E6A07480F090E6A0E01B
:20067E0020E1F97819EAF290E740020EFC90E6A07401F022ED604390E6B9E0FCBC123B9061
:20069E00E6BEE0FBA3E0FCBB0130BC002D7805E4F290E6A0E020E1F990E7407804E2F09091
:2006BE00E6B57401F090E68AE4F090E68B04F090E6A003F075820102036FEE70030207BABA
:2006DE0090E6B9E0FCBC110280030207BA90E6BCE0FBA3E0FC4B601EC0077809E22401FA3E
:2006FE0008E23400FFEBB50206ECB507028005D0070207BAD0078B078C0690E6BEE0FDA39F
:20071E00E0FA7805E4F2EF4E702E758202C007C006C005C00212036F7876E4F278777410EB
:20073E00F208E4F2903FD575F000121F0D120DFDD002D005D006D007ED4A6058C3ED9440A1
:20075E00EA940050068D038A0480047B407C0090E6B57401F090E68AE4F090E68BF090E603
:20077E00A07480F090E6A0E020E1F97816EBF290E740C007C006C005C003C002120E29D0D5
:20079E0002D003D005D006D0077C00EDC39BFDEA9CFA80A47809EFF208EEF222ED7006EEBF
:2007BE00700302086F90E6B9E0FCBC1802800302086F90E6BEE0FBA3E0FCBB1005BC000236
:2007DE00800302086FEF235401FC7805E4F2EC603690E6A0E020E1F9785874D5F208743F11
:2007FE00F2785A7410F208E4F290E740121C4E90E6B57401F090E68AE4F090E68B7410F0B7
:20081E0090E6A07480F022120E7D120E93E582603975820212035690E6B57401F090E68A5A
:20083E00E4F090E68BF090E6A07480F090E6A0E020E1F978587440F20874E7F2785A7410CA
:20085E00F208E4F2903FD5021C4E90E6A07401F022ED7006EE700302091890E6B9E0FCBC4F
:20087E001402800302091890E6BEE0FBA3E0FCBB0205BC00028003020918EF235401FC90F7
:20089E00E6BCE0FB7805E4F2EC603890E6A0E020E1F9781F7440F20874E7F28B82121092A3
:2008BE00E582700790E6A07401F02290E6B57401F090E68AE4F090E68B7402F090E6A0744A
:2008DE0080F02290E6B57401F090E68AE4F090E68B7402F090E6A07480F090E6A0E020E1AC
:2008FE00F9781B7440F20874E7F28B82120F8DE582700675820102035622ED605790E6B973
:20091E00E0FCBC154F90E6BEE0FBA3E0FCBB0244BC004190E6BCE0FC7805E4F290E6A0E0DA
:20093E0020E1F9782E7440F20874E7F28C821213B4E582700790E6A07401F02290E6B574FD
:20095E0001F090E68AE4F090E68B7402F090E6A07480F022ED7006EE7003020A3390E6B9FF
:20097E00E0FCBC16028003020A3390E6BEE0FBA3E0FCBB0405BC00028003020A33EF2354AF
:20099E0001FC90E6BCE0FB7805E4F2EC604490E6A0E020E1F9783C7440F20874E7F2783EF7
:2009BE0074022440F2E434E708F28B821215B5E582700790E6A07401F02290E6B57401F060
:2009DE0090E68AE4F090E68B7404F090E6A07480F02290E6B57401F090E68AE4F090E68B3B
:2009FE007404F090E6A07480F090E6A0E020E1F978327440F20874E7F2783474022440F26A
:200A1E00E434E708F28B82121424E582700675820102035622ED604790E6B9E0FCBC173F65
:200A3E0090E6BEE0FBA3E0FCBB0134BC00317805E4F290E6A0E020E1F978437401F290E751
:200A5E00401216CA90E6B57401F090E68AE4F090E68B04F090E6A003F075820402036FEE87
:200A7E00602F90E6B9E0FCBC192790E6BEE0FBA3E0FC4B701C90E6BAE0FBA3E04B24FFE47D
:200A9E0033F5827805E4F2120F3C90E6A07480F022ED7006EE7003020B9390E6B9E0FEBE93
:200ABE001A028003020B9390E6BEE0FCA3E0FEBC0205BE00028003020B93EF235401FF90AC
:200ADE00E6BCE0FE7805E4F2EF607390E6A0E020E1F978257440F20874E7F28E821212297E
:200AFE00E582700790E6A07401F022786874E5F208743FF208E4F278667431F208E4F278DC
:200B1E006B7404F208E4F2786D04F2786E7408F2786F74FFF2758251121D27E5827007907D
:200B3E00E6A07401F02290E6B57401F090E68AE4F090E68B7402F090E6A07480F02290E62D
:200B5E00B57401F090E68AE4F090E68B7402F090E6A07480F090E6A0E020E1F978237440E9
:200B7E00F20874E7F28E8212114CE582700675820102035622ED605290E6B9E0FFBFC04AC9
:200B9E0090E6BCE0FF7805E4F2BF043778587475F2087429F2902975785AE493F2A3E49314
:200BBE0008F290E000121C4E7E007FE090E6B57401F090E6B3EFF090E6B4EEF090E6A0742A
:200BDE0080F02290E6A07401F02290E6A07401F022C0E0C000C0D075D000780F7401F2D038
:200BFE00D0D000D0E032903E94E4F0A3F0780FF27582041203567843E4F2903E931216CAC9
:200C1E00903E93E0FF781B7494F208743EF28F82020F8D53B0EFC2CAC2CF32C0E0C082C0AB
:200C3E008343B010D2CA5391EF90E65F74F3F0D083D082D0E032020C39020C39020C390217
:200C5E000C39020C39020C3990E6007412F090E67A7401F012020E12029E120DCD120F2D54
:200C7E001212801217F31226D390E611E4F01226D390E610E4F075C801D2AD90E65EE04317
:200C9E00E0F3F0D2A8903FD1E0FCA3E0FDA3E0FEA3E0FFEC4D4E4F7003020DA8903FD178E2
:200CBE0010E0F2A3E008F2A3E008F2A3E008F27D527814E4F208F2758201C005120DE512BF
:200CDE000DFDD0057810E2F5F008E242F008E242F008E245F07003020D8C7C807810C3E23A
:200CFE00948008E2940008E2940008E2940050047810E2FC785E7400F20874E0F208E4F226
:200D1E007861ECF208E4F27814795CE2F308E209F378637401F28D82121C87E582604F7870
:200D3E0016ECF290E000C005C004120E29D004D0058C027B007E007F007810E2C39AF208EF
:200D5E00E29BF208E29EF208E29FF28C077B007814E22FF208E23BF27814E2F5F008E245DB
:200D7E00F06003020CE28D03EB04FD020CE27810E2F5F008E242F008E242F008E245F07090
:200D9E0003120E7D758200120DE5120E93E5826006758202120356758201121F617805E2CD
:0F0DBE006003120460780FE260F3120C0480EE01
:2028B2001201000200000040B720B19D0001010203020A060002000000080000090400005C
:2028D20000FFFFFF060904000102FFFFFF070904000102FFFFFF080904010000FFFFFF06A9
:2028F2000904010102FFFFFF070705020200020007050402000200070586020002000705E9
:2029120088020002000902000002010480FACE28D728FB280929E928F228022910290000B4
:202932000902000001020580FACE28E028FB280929000017293229AE29C229D529E8292415
:202952002A442A4D2A622AB228C42802452908492912034D0053004600540031003000303A
:2029720000C00028000000000104000100000000000000000157494E55534200000000007E
:202992000000000000000000000000393939393939393939393939393939390077686974D9
:2029B20065717561726B20726573656172636800476C6173676F7720446562756720546F51
:2029D2006F6C00582D585858585858585858585858585858580050697065205120617420F1
:2029F2007B327835313242204550324F55542F455036494E7D2C2052206174207B327835CC
:202A1200313242204550344F55542F455038494E7D00506970652051206174207B3478359E
:202A3200313242204550324F55542F455036494E7D0044697361626C656400446F75626CE4
:202A5200652D6275666665726564203531324200517561642D627566666572656420353114
:032A7200324200ED
:200DCD00740445B054C7F5B043B53C22E582600443B0082253B0F722E582600443B010228F
:100DED0053B0EF22E582600443B0202253B0DF22DE
:200DFD001226D390E601E053E0FCF043B50253B0FD9000011228044390105390F753B2F7D3
:200E1D0043B31C43B0029004B002280475AF0385829B85839A90E67B7816E2F8E0A2E7C24D
:200E3D00949292D294A2E6C2949292D294A2E5C2949292D294A2E4C2949292D294A2E3C2FB
:200E5D00949292D294A2E2C2949292D294A2E1C2949292D294A2E0C2949292D294D8BD2277
:200E7D007431C29400D294D5E0F853B3E390E601E043E023F022E580A2E3E433F58222E530
:200E9D00827817F2758210121A3FE5826019784C7401F208E4F2903E1775F060121A73E5A9
:200EBD0082600475820122121A5775820022AE82AF83758211121A3FE582601C7D007818B4
:200EDD007951E2F309E4F38E828F838DF0121AFAE582600475820122121A5775820022AE82
:200EFD0082AF837D007819794CE2F309E4F38E828F838DF0121A73E582600E121A57E5829C
:100F1D007003F5822275820122121A577582002202
:200F2D0074BE55B04480F5B043B5C153B07F22E582600453B07F2243B08022AF827E008F65
:200F4D0005BD0102800ABF02028009BD031180087E0C800B7E0D8007781AE270027E48EECF
:200F6D007003F58222EE2EFE781AE24EF582121A3FE5827007121A57758200227582012206
:200F8D00AF827E00781BE2F58208E2F583E0FCA3E0FDEF30E0027E01EF30E103430640EFF0
:200FAD0030E013903FE5E0FAA3E0FBC3EA9CEB9D500475820022EF30E113903FE7E0FAA371
:200FCD00E0FBC3EA9CEB9D500475820022EC4D7008EEF452B075820122C3EC9472ED940600
:200FED004008747C9C74159D500475820022EC248EFCED34F9FD788FECF2E2F5F0EDC4C5AA
:20100D00F0C4540F65F0C5F0540FC5F065F0F2C5F008F290010DC007C0061226F8AC82AD5E
:20102D0083D006D007EDC4CCC4540F6CCC540FCC6CCCFD74E0C39CFC740F9DFB781DEBF2F7
:20104D00781EECF2781AE4F28F82C006120F48E582D0067003F58222784C7402F208E4F214
:20106D00903E1D75F060121A73E5827007121A5775820022121A57E5827003F58222EE4274
:20108D00B075820122AF82BF01028005BF020A80047E0180087E40800475820022EE55B05D
:2010AD007011781FE2F58208E2F583E4F0A3F075820122781A7401F28F82120F48E5827085
:2010CD0003F5822278517402F208E4F2903E2175F060121AFAE5827003F582227821E2FE92
:2010ED007F007822E27C004207EC4206781FE2FC08E2FDEEC4CFC4540F6FCF540FCF6FCF3D
:20110D00FE788F74FFC39FF2E49E08F2900098C005C0041226F87849740AF208E4F212195F
:20112D00B7E5828583F0D004D0052472FE740635F0FF8C828D83EEF0EFA3F075820122AF6A
:20114D00827823E2FD08E2FE8D828E83E0FBA3E0FC4B6015C3EB9472EC94064008747C9B57
:20116D0074159C50047582002275087575092A850882850983E493FA7003021225EA5F7040
:20118D0003021217781F7496F208743EF28A82C007C006C005C004C003121092E582D00302
:2011AD00D004D005D006D0077003F58222C007903E96E0FAA3E0FFC3EB9AEC9FD00750300F
:2011CD00850882850983E493FA781BEDF208EEF28A82C007C006C005C004C003120F8DE59F
:2011ED0082D003D004D005D006D0077003F58222850882850983A3E49325E0FA24E5F58272
:20120D00E4343FF583EBF0ECA3F074022508F508E43509F50902117C75820122AF827E750B
:20122D007D2A8E038D048B828C83E493FA6040EFB5022F7825E2F51908E2F51A8E828D8330
:20124D00A3E49325E024E5F582E4343FF583E0FDA3E0FE851982851A83EDF0EEA3F075821E
:13126D00012274022BFBE43CFC8B068C0580B77582002221
:062A750001000201000057
:2012800090E670E043E001F05388FE22A982E3FE7F0009E37C004207EC4206788FEFF2E23F
:2012A000F5F0EEC4C5F0C4540F65F0C5F0540FC5F065F0F2C5F008F29001031226F878491E
:2012C000740AF208E4F20219B7AE82AF83788FEEF208EFF290000A1226F878497403F208C0
:2012E0007401F21219B7AE82E583C454F0CEC4CE6ECE54F0CE6EFF7827E2F9EFF309EEF3A4
:2013000022E5822582FFF582121A3FE5826048784C7401F208E4F2903E2875F060121A734A
:20132000E5826033EF3395E0FE4307018F82121A3FE58260227829E2FD7E007F60782A7976
:2013400051E2F309E4F38D828E838FF0121AFAE582600475820122121A5775820022E582DA
:20136000FF25E0F582121A3FE5826041784C7401F208E4F2903E2B75F060121A73E5826052
:201380002C782CE2FD7E007F60782D794CE2F309E4F38D828E838FF0121A73E582600E12FD
:2013A0001A57E5827003F5822275820122121A5775820022AF827D7B7E2A8D038E048B8293
:2013C0008C83E493FA6059EFB502488D828E83A3E493FA78297430F27828E4F2782A7402ED
:2013E000F28A82121301E5827003F58222782EE2F50A08E2F50B75823012128C85820C8576
:20140000830D850A82850B83E50CF0E50DA3F07582012274022BFBE43CFC8B058C06809EA0
:2014200075820022AF827836E4F27837F27838740FF27839F4F2783A7403F2783BE4F27865
:2014400032E2F58208E2F583E0FDA3E0FEC3747C9D74159E401D7834E2FB08E2FC8B828C65
:2014600083E0F50EA3E0F50FC3747C950E7415950F500475820022ED4E700C747CB50E071E
:201480007415B50F02803778277436F28D828E83C007C004C0031212C9D003D0048B828C70
:2014A00083E0FBA3E0FC78277438F28B828C831212C9D007783B7414F2783B74D4F27D7B20
:2014C0007E2A8D828E83E493FC70030215B1EC5F70030215A774012DFBE43EFC8B828C8343
:2014E000E493FA782C7436F2782B7403F2782D14F28A82C007C006C005C004C00312135E1C
:20150000E582D003D004D005D006D0077003F582228B828C83E493FA782C7438F2782B7449
:2015200004F2782D03F28A82C007C006C005C004C00312135EE582D003D004D005D006D02A
:20154000077003F582228B828C83E493FA782C743AF2782B7401F2782DF28A82C007C0066D
:20156000C005C004C00312135EE582D003D004D005D006D0077003F582228B828C83E4936D
:20158000FB782C743BF2782B7402F2782D14F28B82C007C006C00512135EE582D005D00661
:2015A000D0077003F5822274022DFDE43EFE0214C275820122AF827D7B7E2A8D038E048B18
:2015C000828C83E493FA70030216BAEFB5020280030216AC74012DF510E43EF511851082EF
:2015E000851183E493FD78297442F278287402F2782A14F28D82121301E5827003F58222BD
:201600007842E27021783CE2F58208E2F583E4F0A3F0783EE2F58208E2F583747CF07415ED
:20162000A3F075820122851082851183E493FD78297440F278287403F2782A14F28D821240
:201640001301E5827003F58222783CE2F51208E2F51375824012128CAA82AE838512828592
:201660001383EAF0EEA3F0851082851183E493FE78297440F278287404F2782A03F28E82DC
:20168000121301E5827003F58222783EE2F51208E2F51375824012128CAA82AE83851282C3
:2016A000851383EAF0EEA3F07582012274022BFBE43CFC8B058C060215BF75820022E5806C
:2016C0005401B40100E433F58222AF83E5827844F208EFF27844E2F58208E2F583E4F07C59
:2016E0007B7D2A8C828D83E49370030217EF74012CFAE43DFB8A828B83E493FF7829744616
:20170000F278287401F2782AF28F82C005C004C003C002121301E582D002D003D004D00542
:201720007003F582227846E270030217E57847E4F27844E2F58208E2F583E0FF8C828D8383
:20174000E49342077844E2F58208E2F583EFF08A828B83E493FF78297447F278287402F28D
:20176000782A14F28F82C005C004C003C002121301E582D002D003D004D0057003F58222BB
:201780007843E260308A828B83E493FA782C7446F2782B7401F2782DF28A82C005C00412F9
:2017A000135EE582D004D0057003F582227847E24404F280067847E254FBF28C828D83A398
:2017C000E493FF782C7447F2782B7402F2782D14F28F82C005C00412135EE582D004D0055F
:1317E0007003F5822274022CFCE43DFD0216E37582012219
:062A7B00015402550000A9
:2017F3001226D390E60B7403F01226D390E6017480F01226D390E6047480F01226D390E693
:2018130009E4F01226D390E6027498F01226D390E60374FEF01226D390E670E043E080F00F
:201833001226D390E618E053E0FEF01226D390E619E053E0FEF01226D390E61AE053E0FEB4
:20185300F01226D390E61BE053E0FEF022E582FF60067E007D0080047E027D801226D39063
:20187300E6047480F01226D390E61274A04EF01226D390E61374204DF01226D390E6147434
:20189300E04EF01226D390E6247402F01226D390E625E4F01226D390E61574604DF01226B3
:2018B300D390E6267402F01226D390E627E4F0EF60067D017E0080047D037E007848EDF252
:2018D3008F821218E11226D390E604E4F022AF827848E25401606D1226D390E618E4F012EA
:2018F30026D390E604E0FE7D0043060290E604EEF01226D390E6497482F01226D390E649EA
:201913007482F0EF60121226D390E6497482F01226D390E6497482F01226D390E6187410F0
:20193300F01226D390E61AE4F01226D390E604E0FF7E0043070690E604EFF01226D390E629
:201953001A744CF07848E2540260581226D390E619E4F01226D390E604E0FF7E004307045C
:2019730090E604EFF01226D390E6497484F01226D390E6497484F01226D390E6197410F089
:201993001226D390E61BE4F01226D390E604E0FF7E0043070890E604EFF01226D390E61B9B
:0419B300744CF0225E
:2019B700AE82AF837C007D007B10EF235401FAEE2EFEEF33FFEC2CFCED33FDEA60034304C9
:2019D700017849C3E2F5F0EC95F008E2F5F0ED95F040117849D3E29CF4B3FCB308E29DF4BE
:0E19F700FD430601EB14FB70C18E828F83222C
:201A0500C007C000AF8290E678E020E009784BE260F4784BE4F290E678E030E205758200C4
:201A25008013EF600D90E678E0FFA2E1E433F5828003758201D000D00722C007AF8290E622
:201A4500787480F090E679EFF0758201121A05D0072290E6787440F090E678E020E6F99046
:201A6500E678E030E2047582002275820122C007C006C004C003C002C000AFF0AE83E5820D
:201A8500784EF208EEF208EFF2784CE2F5F008E245F07005758201804F7B007C00784CE235
:201AA500B5030708E2B50402802B784EE22BFA08E23CFE08E2FF8A828E838FF0122889FADF
:201AC50090E679F0758201121A05E58260070BBB00CB0C80C8784CE2B5030808E2B504033A
:201AE500D38001C3E433F582D000D002D003D004D006D00722C007C006C005C004C003C08B
:201B050002C001C000AFF0AE83E5827853F208EEF208EFF27851E2F5F008E245F0700675DE
:201B25008201021C3D7851E2B4010408E26002800690E6787420F090E679E07B007C0078DC
:201B450056E4F208F278567951E2F5F0E3B5F00C08E2F5F009E3B5F003021C1775820012C6
:201B65001A05E5827003021C2A7856E22402FD08E23400FE7851E2B5050708E2B50602809D
:201B850002800690E6787420F07856E22401FD08E23400FE7851E2B5050708E2B5060280C5
:201BA50002803575AF03759AE6759B7890E67B7440F0E0ACE078537956E3C5F0E225F0FD9E
:201BC50009E3C5F008E235F0FE08E2FF8D828E838FF0EC1226DC802578537956E3C5F0E211
:201BE50025F0FD09E3C5F008E235F0FE08E2FF90E679E0FA8D828E838FF01226DC7856E20B
:201C05002401F208E23400F27856E2FB08E2FC021B4A90E678E020E6F990E678E030E205EE
:201C250075820080137851E2B5030808E2B50403D38001C3E433F582D000D001D002D00319
:091C4500D004D005D006D007221E
:201C4E00C082C083AA82AB837858E2FC08E2FD785AE2FE08E2FFEE60010FEF601775AF0778
:191C6E008A9B8B9A8C9E8D9D90E67CE090E67BF0DEF6DFF4D083D082229E
:201C8700C007C006C005C001C000AF827863E26012785DE2FE7864EEF2785CE2FE7865EE1A
:201CA700F28008785CE2FE7864EEF2EF2FFFF582121A3FE58260587863E2FDE23395E0FED3
:201CC700784C74012DF2E43E08F2903E6475F060121A73E5826038EF3395E0FE4307018F85
:201CE70082121A3FE582602778617951E2F308E209F3785EE2F58208E2F58308E2F5F01232
:201D07001AFAE5827004F582800B7582018006121A57758200D000D001D005D006D007228E
:201D2700C007C006C005C004C003C002C001C000AF827870E4F208F2EF2FFFF582121A3F98
:201D4700E5827003021EDC786EE2FC8CF005F07B017C008006EB2BFBEC33FCD5F0F7787023
:201D6700796BC3E3F5F0E295F009E3F5F008E295F04003021EDC786DE260127867E2FA789B
:201D870072EAF27866E2FA7873EAF280087866E2FA7872EAF2C003C004786DE2FAE2339573
:201DA700E0FC784C74012AF2E43C08F2903E7275F060121A73E582D004D0037003021EDCB0
:201DC700C0078B028C077891EAF208EFF27866E2F58208E2F583C007C004C003C002C001DD
:201DE700C00012271CAD82AE83D000D001D002D003D004D0077874EAC39DF2EF9E08F2784F
:201E07006B7970E3F5F0C3E295F0FE09E3F5F008E295F0FF7874C3E2F5F0EE95F008E2F570
:201E2700F0EF95F0D0075020786B7970E3F5F0C3E295F0C0E009E3F5F008E295F0C0E0783A
:201E470075D0E0F218D0E0F278687970E3C5F0E225F0FA09E3C5F008E235F0FD08E2FE784B
:201E670074794CE2F308E209F38A828D838EF0121A73E582605F121A57E5827004F58280B3
:201E8700737E00786FE2600B786FC3E2F5F0EE95F0500C8F82121A3FE58270030E80E47896
:201EA7006FE2B50605758200804A78667974E3C5F0E225F0F209E3C5F008E235F0F2787073
:201EC7007974E3C5F0E225F0F209E3C5F008E235F0F2021D65121A577870796BE2F5F0E36E
:201EE700B5F00C08E2F5F009E3B5F003D38001C3E433F582D000D001D002D003D004D00533
:051F0700D006D0072206
:06009800E478FFF6D8FD3C
:011F0C0032A2
:201F0D00AFF0AE83E5827879F208EEF208EFF27879E2FA08E2FB08E2FC7877E2F51908E268
:201F2D00F51AAE19AF1A151974FFB51902151AEE4F60138A828B838CF07876E21226DCA388
:141F4D00AA82AB8380DC7879E2F58208E2F58308E2F5F0222D
:201F6100AF82787DE4F2787EF2D2E890E668E043E008F090E65CE043E001F090E65D7401DB
:201F8100F0D2AF90E680E020E10890E680E043E002F0EF600E90E680E043E008F090000A1D
:201FA10012284B90E680E053E0F7F022AF82BF00028037BF01028036BF02028039BF040227
:201FC1008038BF06028037BF08028036BF80028019BF8102801CBF8202801BBF8402801AD6
:201FE100BF86028019BF881E801890E6A02290E6A12290E6A22290E6A32290E6A42290E66B
:20200100A52290E6A62290000022C020C0E0C0F0C082C083C007C006C005C004C003C002B8
:20202100C001C000C0D075D000C08675860090E6B8E0FFE4BF800104FE601B90E6B9E0FD4E
:20204100BD061390E6BAE0FCA3E0F5827800ECF21201BE022289EF702790E6B9E0FDBD0977
:202061001F90E6BAE0F58212039CE582600990E6A07480F002228990E6A07401F002228969
:20208100EE600E90E6B9E0FDBD08061227B70222898F05BD012F90E6B9E0FDBD0B2790E67D
:2020A100BCE0FD90E6BA7808E0F28D821203E5E582600990E6A07480F002228990E6A074FA
:2020C10001F0022289E4BF810104FD601490E6B9E0FCBC0A0C90E6BCE0F5821204400222E7
:2020E10089EF703790E6B9E0FCBC032F90E6BAE0FBA3E0FCBB0110BC000D787D7401F290BC
:20210100E6A003F0022289BB0205BC0002800302228990E6A07480F0022289EE603590E648
:20212100B9E0702F787CE2FE787DE225E0FC420690E740EEF090E741E4F090E6B504F090A2
:20214100E68AE4F090E68B7402F090E6A07480F0022289ED602890E6B9E0702290E740E47B
:20216100F090E741F090E6B504F090E68AE4F090E68B7402F090E6A07480F0022289BF0204
:2021810002800302223490E6B9E0FEBE03028008BE0102800302223490E6BAE0FDA3E0FEDF
:2021A1004D600302228990E6BCE0F582121FADAD82AE83ED4E700302228990E6B9E0FCBCD8
:2021C10003188D828E83E0FC4304018D828E83ECF090E6A07480F002228990E6BCE0F58273
:2021E100C006C0051227A5E582D005D00670030222898D828E83E0FC5304FE8D828E83ECE6
:20220100F090E6BCE0FDA3E0740F5DFB7C00530580E4C423CDC423541F6DCD541FCD6DCD66
:20222100FEED4203EE420490E683EBF0E043E020F08055BF824C90E6B9E0704690E6BCE019
:20224100F582121FADAE82AF83EE4F603B8E828F83E0FE5306017F00EE4FB40100B3E43359
:20226100FF90E740F090E741E4F090E6B504F090E68AE4F090E68B7402F090E6A07480F0D7
:20228100800690E6B812038A5391EF90E65D7401F0D086D0D0D000D001D002D003D004D0FF
:2022A10005D006D007D083D082D0F0D0E0D02032AE82AF837883E2B4012C7884E270278E11
:2022C100828F83E493FCA3E493FD7858ECF208EDF28C828D83E493785AF208E4F290E000A3
:2022E100121C4E02253A7883E2B4063C7884E270378E828F83A3A3E493FCA3E493FD4C70FA
:202301000790E6A07401F0228C028D037858EAF208EBF28C828D83E493785AF208E4F290A2
:20232100E000121C4E02253A7883E2B4020280030224588E828F83A3A3A3A3E493FD78842B
:20234100C3E29D40030224588E828F83A3A3A3A3A3E493FCA3E493FD7884E275F002A42C89
:20236100F582ED35F0F583E493FCA3E493FD74092CFAE43DFB7885EAF208EBF2087480F266
:202381008C028D037858EAF208EBF28C828D83E493785AF208E4F290E000C005C004121C2F
:2023A1004ED004D0058C828D83E4932400FCE434E0FD7885E2F51408E2F51508E2F5168C1E
:2023C100178D188514828515838516F0122889FAA3122889FB7858EAF208EBF28A828B83B4
:2023E100E493785AF208E4F2851782851883C005C004121C4ED004D005851482851583851A
:2024010016F0122889FAA3122889FB8A828B83E4932CFCE43DFD74022514F514E43515F5E5
:20242100158514828515838516F0122889FAA31228894A708A90E002E0FAA3E0FB4A6003E5
:2024410002253AECC39400FCED94E0FD90E002ECF0EDA3F002253A7883E2B40304740180C1
:2024610001E4FD60227884E2701D78587481F208742AF2902A81E493785AF208E4F290E079
:2024810000121C4E02253AED70030225337884E2FC7D0024FFFAED34FFFB74072EF582E411
:2024A1003FF583C006C007E493FF7E00C3EA9FEB64808EF063F08095F0D007D0065073740E
:2024C100082EF582E43FF583E493FEA3E493FF1CBCFF011DEC2CFCED33FDEC2EF582ED3F42
:2024E100F583E493FEA3E493FF90E0007402F090E00104F074012401FCE434E0FD8E828F70
:2025010083E493FB60330EBE00010F8C828D83EBF074012CFAE43DFB8A828B83E4F0042A8A
:20252100FCE43BFD90E000E0FB0B0B90E000EBF080CB90E6A07401F0227E007FE090E6B5E6
:202541007401F090E6B3EFF090E6B4EEF090E6A07480F022AE82AF83A3A3A3A3A3E493FCE5
:20256100A3E493FD74042EFEE43FFF788AE4F28E828F83E493FA788AC3E29A400122C006A8
:20258100C007788AE275F002A42CF582ED35F0F583E493FBA3E493FA74092BFEE43AFF7896
:2025A1008BEEF208EFF2087480F27F008B828A83A3A3A3A3A3E493FE787EE2B5060280077F
:2025C100D007D0060226C7D007D006788BE2F51908E2F51A08E2F51BC004C005851982859D
:2025E1001A83851BF0122889FAA3122889FD8A828D83A3E493F51C7404B51C028006D005A0
:20260100D0048047D005D004851982851A83851BF0122889F51DA3122889F51E851D8285AC
:202621001E83A3A3E493FA7888E2B50214851D82851E83A3A3A3E493FA7889E2B5020280D4
:20264100047A0080027A018A0780587405B51C53EF6050C004C005851982851A83851BF0FE
:20266100122889FAA3122889FD8A828D83A3A3E493FD740F5DFA7B00530580E423CDC4237B
:20268100541F6DCD541FCD6DCD30E40244E0FCED4202EC420390E683EAF0E043E020F0D0C4
:2026A10005D00474022519F519E4351AF51A851982851A83851BF0122889FAA3122889FB4C
:0F26C1004A60030225D9788AE22401F2022570CB
:042A8100040309043D
:0126D00032D7
:200076007900E94400601B7A00902A85789875923EE493F2A308B800020592D9F4DAF275C8
:0200960092FFD7
:0126D10032D6
:0126D20032D5
:0301000002200BCF
:0301040002288648
:030108000227A328
:03010C0002288244
:030110000228883A
:030114000228AC12
:030118000227A01B
:03011C000201B825
:03012000020C547A
:03012400020C5773
:030128000227B4F7
:03012C000228ABFB
:03013000020C5A64
:03013400020C5D5D
:03013800020C6056
:03013C00020C634F
:030140000227B1E2
:030144000201B8FD
:030148000228A5E5
:03014C000228A6E0
:030150000228A7DB
:030154000228A8D6
:030158000228A9D1
:03015C000228AACC
:03016000022887EB
:030164000201B8DD
:030168000201B8D9
:03016C000201B8D5
:030170000227B3B0
:030174000227B5AA
:030178000227D487
:03017C000227D681
:030180000227B69D
:030184000227D57A
:030188000227D774
:03018C00022883C3
:0301900002271B28
:030194000227A19E
:030198000227A497
:03019C000227B087
:0301A00002279F94
:0301A4000227A28D
:0301A8000227AF7C
:0301AC000227B275
:0301B0000227190A
:0301B4000228B16D
:0101B8003214
:0926D300000000000000000022DC
:1B26DC0020F71130F6138883A88220F509F6A8837583002280FEF280F5F022FD
:0126F70032B0
:2026F800AA83AB828BF0903E8FE0A4F8A9F08AF0E0A429F98BF0A3E0A429F58388822222CA
:01271800328E
:01271900328D
:01271A00328C
:01271B00328B
:20271C00AE82AF837D007C007892E2235401FB70357891E225E0F208E233F27891C3E2F5AA
:20273C00F0EE95F008E2F5F0EF95F050147891E2F5F008E2C313C5F01318F2C5F008F280E2
:20275C00050C8C0580C27891C3E2F5F0EE95F008E2F5F0EF95F0400E7891D3E29EF4B3FEE1
:20277C00B308E29FF4FF7891E2F5F008E2C313C5F01318F2C5F008F28D041DEC70C88E821B
:03279C008F832206
:01279F003207
:20009E007893E84400600A790075923EE4F309D8FC7805E84400600C7901903E93E4F0A3C8
:0400BE00D8FCD9FA97
:0127A0003206
:0127A1003205
:0127A2003204
:0127A3003203
:0127A4003202
:0A27A50090E6A07480F07582012216
:0127AF0032F7
:0127B00032F6
:0127B10032F5
:0127B20032F4
:0127B30032F3
:0127B40032F2
:0127B50032F1
:0127B60032F0
:1D27B70090E740787EE2F090E6B57401F090E68AE4F090E68B04F090E6A003F02202
:0127D40032D2
:0127D50032D1
:0127D60032D0
:0127D70032CF
:2027D800C3E5829407F582E5839400F5835009858282858282E58222600A74FE00001470DD
:2027F800FDD583F6E5826003D582FD22AE82AF83EE2EFCEF33FDEE2CFEEF3DFF90E600E004
:20281800FD20E419ED30E309EFC313CE13CEFF800CEFC313CE13CEC313CE13CEFFC374143B
:202838009EE49F400122EE24ECF582EF34FFF5830227D8AE82AF8390E600E0FD30E4067BA2
:20285800B37C0B800EED30E3067BD77C0580047BE97C028E028F051EBEFF011FEA4D60099A
:0A2878008B828C831227D880EA229D
:012882003223
:012883003222
:012884003221
:012885003220
:01288600321F
:01288700321E
:01288800321D
:0D0069007581201228ADE58260030200665B
:1C28890020F71430F6148883A88220F507E6A88375830022E280F7E49322E0225E
:0128A5003200
:0128A60032FF
:0128A70032FE
:0128A80032FD
:0128A90032FC
:0128AA0032FB
:0128AB0032FA
:0128AC0032F9
:0428AD00758200220E
:0128B10032F4
:00000001FF
